{
  "contractName": "VotingSystem",
  "abi": [
    {
      "inputs": [],
      "payable": false,
      "stateMutability": "nonpayable",
      "type": "constructor"
    },
    {
      "constant": true,
      "inputs": [],
      "name": "candidateCount",
      "outputs": [
        {
          "internalType": "uint256",
          "name": "",
          "type": "uint256"
        }
      ],
      "payable": false,
      "stateMutability": "view",
      "type": "function"
    },
    {
      "constant": true,
      "inputs": [
        {
          "internalType": "uint256",
          "name": "",
          "type": "uint256"
        }
      ],
      "name": "candidateList",
      "outputs": [
        {
          "internalType": "uint256",
          "name": "id",
          "type": "uint256"
        },
        {
          "internalType": "string",
          "name": "name",
          "type": "string"
        },
        {
          "internalType": "uint256",
          "name": "voteCount",
          "type": "uint256"
        }
      ],
      "payable": false,
      "stateMutability": "view",
      "type": "function"
    },
    {
      "constant": true,
      "inputs": [],
      "name": "voterCount",
      "outputs": [
        {
          "internalType": "uint256",
          "name": "",
          "type": "uint256"
        }
      ],
      "payable": false,
      "stateMutability": "view",
      "type": "function"
    },
    {
      "constant": true,
      "inputs": [
        {
          "internalType": "uint256",
          "name": "",
          "type": "uint256"
        }
      ],
      "name": "voterList",
      "outputs": [
        {
          "internalType": "uint256",
          "name": "id",
          "type": "uint256"
        },
        {
          "internalType": "string",
          "name": "name",
          "type": "string"
        },
        {
          "internalType": "bool",
          "name": "cast",
          "type": "bool"
        }
      ],
      "payable": false,
      "stateMutability": "view",
      "type": "function"
    },
    {
      "constant": false,
      "inputs": [
        {
          "internalType": "uint256",
          "name": "candidateId",
          "type": "uint256"
        },
        {
          "internalType": "uint256",
          "name": "voterId",
          "type": "uint256"
        }
      ],
      "name": "vote",
      "outputs": [],
      "payable": false,
      "stateMutability": "nonpayable",
      "type": "function"
    },
    {
      "constant": false,
      "inputs": [
        {
          "internalType": "uint256",
          "name": "id",
          "type": "uint256"
        },
        {
          "internalType": "string",
          "name": "name",
          "type": "string"
        }
      ],
      "name": "createCandidate",
      "outputs": [],
      "payable": false,
      "stateMutability": "nonpayable",
      "type": "function"
    },
    {
      "constant": false,
      "inputs": [
        {
          "internalType": "uint256",
          "name": "id",
          "type": "uint256"
        },
        {
          "internalType": "string",
          "name": "name",
          "type": "string"
        }
      ],
      "name": "createVoter",
      "outputs": [],
      "payable": false,
      "stateMutability": "nonpayable",
      "type": "function"
    }
  ],
  "bytecode": "0x608060405234801561001057600080fd5b5061005760016040518060400160405280600f81526020017f61646d696e2d63616e64696461746500000000000000000000000000000000008152506100b160201b60201c565b61009d60016040518060400160405280600b81526020017f61646d696e2d766f74657200000000000000000000000000000000000000000081525061012860201b60201c565b60016000819055506001808190555061025c565b60405180606001604052808381526020018281526020016000815250600260008481526020019081526020016000206000820151816000015560208201518160010190805190602001906101069291906101b7565b5060408201518160020155905050600180600082825401925050819055505050565b6040518060600160405280838152602001828152602001600015158152506003600084815260200190815260200160002060008201518160000155602082015181600101908051906020019061017f9291906101b7565b5060408201518160020160006101000a81548160ff021916908315150217905550905050600160008082825401925050819055505050565b828054600181600116156101000203166002900490600052602060002090601f016020900481019282601f106101f857805160ff1916838001178555610226565b82800160010185558215610226579182015b8281111561022557825182559160200191906001019061020a565b5b5090506102339190610237565b5090565b61025991905b8082111561025557600081600090555060010161023d565b5090565b90565b6107f48061026b6000396000f3fe608060405234801561001057600080fd5b506004361061007d5760003560e01c8063a9a981a31161005b578063a9a981a31461021e578063b13c744b1461023c578063b384abef146102f1578063bf14c6d2146103295761007d565b806342169e481461008257806350e2e8af146100a057806373ddf41114610159575b600080fd5b61008a6103ee565b6040518082815260200191505060405180910390f35b6100cc600480360360208110156100b657600080fd5b81019080803590602001909291905050506103f4565b604051808481526020018060200183151515158152602001828103825284818151815260200191508051906020019080838360005b8381101561011c578082015181840152602081019050610101565b50505050905090810190601f1680156101495780820380516001836020036101000a031916815260200191505b5094505050505060405180910390f35b61021c6004803603604081101561016f57600080fd5b81019080803590602001909291908035906020019064010000000081111561019657600080fd5b8201836020820111156101a857600080fd5b803590602001918460018302840111640100000000831117156101ca57600080fd5b91908080601f016020809104026020016040519081016040528093929190818152602001838380828437600081840152601f19601f8201169050808301925050505050505091929192905050506104c3565b005b61022661053a565b6040518082815260200191505060405180910390f35b6102686004803603602081101561025257600080fd5b8101908080359060200190929190505050610540565b6040518084815260200180602001838152602001828103825284818151815260200191508051906020019080838360005b838110156102b4578082015181840152602081019050610299565b50505050905090810190601f1680156102e15780820380516001836020036101000a031916815260200191505b5094505050505060405180910390f35b6103276004803603604081101561030757600080fd5b810190808035906020019092919080359060200190929190505050610602565b005b6103ec6004803603604081101561033f57600080fd5b81019080803590602001909291908035906020019064010000000081111561036657600080fd5b82018360208201111561037857600080fd5b8035906020019184600183028401116401000000008311171561039a57600080fd5b91908080601f016020809104026020016040519081016040528093929190818152602001838380828437600081840152601f19601f82011690508083019250505050505050919291929050505061068b565b005b60005481565b6003602052806000526040600020600091509050806000015490806001018054600181600116156101000203166002900480601f0160208091040260200160405190810160405280929190818152602001828054600181600116156101000203166002900480156104a65780601f1061047b576101008083540402835291602001916104a6565b820191906000526020600020905b81548152906001019060200180831161048957829003601f168201915b5050505050908060020160009054906101000a900460ff16905083565b604051806060016040528083815260200182815260200160008152506002600084815260200190815260200160002060008201518160000155602082015181600101908051906020019061051892919061071a565b5060408201518160020155905050600180600082825401925050819055505050565b60015481565b6002602052806000526040600020600091509050806000015490806001018054600181600116156101000203166002900480601f0160208091040260200160405190810160405280929190818152602001828054600181600116156101000203166002900480156105f25780601f106105c7576101008083540402835291602001916105f2565b820191906000526020600020905b8154815290600101906020018083116105d557829003601f168201915b5050505050908060020154905083565b600115156003600083815260200190815260200160002060020160009054906101000a900460ff1615151461068757600260008381526020019081526020016000206002016000815480929190600101919050555060016003600083815260200190815260200160002060020160006101000a81548160ff0219169083151502179055505b5050565b604051806060016040528083815260200182815260200160001515815250600360008481526020019081526020016000206000820151816000015560208201518160010190805190602001906106e292919061071a565b5060408201518160020160006101000a81548160ff021916908315150217905550905050600160008082825401925050819055505050565b828054600181600116156101000203166002900490600052602060002090601f016020900481019282601f1061075b57805160ff1916838001178555610789565b82800160010185558215610789579182015b8281111561078857825182559160200191906001019061076d565b5b509050610796919061079a565b5090565b6107bc91905b808211156107b85760008160009055506001016107a0565b5090565b9056fea265627a7a7231582052fc740dce9d3637d29afa711d26169a56652b2ff3bfcc774430e2601db8d50d64736f6c63430005100032",
  "source": "//SPDX-License-Identifier: UNLICENSED\npragma solidity >=0.4.22 <0.9.0;\n\ncontract VotingSystem {\n    struct Voter{\n        uint id;\n        string name;\n        bool cast;\n    }\n    struct Candidate{\n        uint id;\n        string name;\n        uint voteCount;\n    }\n    uint public voterCount;\n    uint public candidateCount;\n    mapping(uint=>Candidate) public candidateList;\n    mapping(uint=>Voter) public voterList;\n\n    constructor() public{\n        createCandidate(1, \"admin-candidate\");\n        createVoter(1, \"admin-voter\");\n        voterCount = 1;\n        candidateCount = 1;\n    }\n    function vote(uint candidateId, uint voterId) public {\n        if(voterList[voterId].cast !=true){\n            candidateList[candidateId].voteCount++;\n            voterList[voterId].cast = true;\n        }\n    }\n    function createCandidate(uint id, string memory name) public{\n        candidateList[id] = Candidate(id,name,0);\n        candidateCount+=1;\n    }\n    function createVoter(uint id, string memory name) public{\n        voterList[id] = Voter(id,name,false);\n        voterCount+=1;\n    }\n}",
  "sourcePath": "/home/utkarsh/Desktop/projects/ganache/projects/project_1/blockchain/contracts/VotingSystem.sol",
  "compiler": {
    "name": "solc",
    "version": "0.5.16+commit.9c3226ce.Emscripten.clang"
  },
  "schemaVersion": "3.4.4",
  "updatedAt": "2022-01-16T11:47:00.524Z",
  "networkType": "ethereum",
  "devdoc": {
    "methods": {}
  },
  "userdoc": {
    "methods": {}
  }
}