{
  "contractName": "VotingSystem",
  "abi": [
    {
      "inputs": [
        {
          "internalType": "uint256",
          "name": "",
          "type": "uint256"
        }
      ],
      "name": "candidateList",
      "outputs": [
        {
          "internalType": "uint256",
          "name": "id",
          "type": "uint256"
        },
        {
          "internalType": "string",
          "name": "name",
          "type": "string"
        },
        {
          "internalType": "uint256",
          "name": "voteCount",
          "type": "uint256"
        }
      ],
      "stateMutability": "view",
      "type": "function",
      "constant": true
    },
    {
      "inputs": [
        {
          "internalType": "uint256",
          "name": "",
          "type": "uint256"
        }
      ],
      "name": "voterList",
      "outputs": [
        {
          "internalType": "uint256",
          "name": "id",
          "type": "uint256"
        },
        {
          "internalType": "string",
          "name": "name",
          "type": "string"
        },
        {
          "internalType": "bool",
          "name": "cast",
          "type": "bool"
        }
      ],
      "stateMutability": "view",
      "type": "function",
      "constant": true
    },
    {
      "inputs": [
        {
          "internalType": "uint256",
          "name": "candidateId",
          "type": "uint256"
        },
        {
          "internalType": "uint256",
          "name": "voterId",
          "type": "uint256"
        }
      ],
      "name": "vote",
      "outputs": [],
      "stateMutability": "nonpayable",
      "type": "function"
    },
    {
      "inputs": [
        {
          "internalType": "uint256",
          "name": "id",
          "type": "uint256"
        },
        {
          "internalType": "string",
          "name": "name",
          "type": "string"
        }
      ],
      "name": "createCandidate",
      "outputs": [],
      "stateMutability": "nonpayable",
      "type": "function"
    },
    {
      "inputs": [
        {
          "internalType": "uint256",
          "name": "id",
          "type": "uint256"
        },
        {
          "internalType": "string",
          "name": "name",
          "type": "string"
        }
      ],
      "name": "createVoter",
      "outputs": [],
      "stateMutability": "nonpayable",
      "type": "function"
    }
  ],
  "bytecode": "0x608060405234801561001057600080fd5b50610930806100206000396000f3fe608060405234801561001057600080fd5b50600436106100575760003560e01c806350e2e8af1461005c57806373ddf4111461008e578063b13c744b146100aa578063b384abef146100dc578063bf14c6d2146100f8575b600080fd5b610076600480360381019061007191906104e4565b610114565b604051610085939291906105d4565b60405180910390f35b6100a860048036038101906100a39190610747565b6101d3565b005b6100c460048036038101906100bf91906104e4565b610239565b6040516100d3939291906107a3565b60405180910390f35b6100f660048036038101906100f191906107e1565b6102eb565b005b610112600480360381019061010d9190610747565b610378565b005b600160205280600052604060002060009150905080600001549080600101805461013d90610850565b80601f016020809104026020016040519081016040528092919081815260200182805461016990610850565b80156101b65780601f1061018b576101008083540402835291602001916101b6565b820191906000526020600020905b81548152906001019060200180831161019957829003601f168201915b5050505050908060020160009054906101000a900460ff16905083565b604051806060016040528083815260200182815260200160008152506000808481526020019081526020016000206000820151816000015560208201518160010190805190602001906102279291906103f7565b50604082015181600201559050505050565b600060205280600052604060002060009150905080600001549080600101805461026290610850565b80601f016020809104026020016040519081016040528092919081815260200182805461028e90610850565b80156102db5780601f106102b0576101008083540402835291602001916102db565b820191906000526020600020905b8154815290600101906020018083116102be57829003601f168201915b5050505050908060020154905083565b600115156001600083815260200190815260200160002060020160009054906101000a900460ff16151514610374576000808381526020019081526020016000206002016000815480929190610340906108b1565b9190505550600180600083815260200190815260200160002060020160006101000a81548160ff0219169083151502179055505b5050565b604051806060016040528083815260200182815260200160001515815250600160008481526020019081526020016000206000820151816000015560208201518160010190805190602001906103cf9291906103f7565b5060408201518160020160006101000a81548160ff0219169083151502179055509050505050565b82805461040390610850565b90600052602060002090601f016020900481019282610425576000855561046c565b82601f1061043e57805160ff191683800117855561046c565b8280016001018555821561046c579182015b8281111561046b578251825591602001919060010190610450565b5b509050610479919061047d565b5090565b5b8082111561049657600081600090555060010161047e565b5090565b6000604051905090565b600080fd5b600080fd5b6000819050919050565b6104c1816104ae565b81146104cc57600080fd5b50565b6000813590506104de816104b8565b92915050565b6000602082840312156104fa576104f96104a4565b5b6000610508848285016104cf565b91505092915050565b61051a816104ae565b82525050565b600081519050919050565b600082825260208201905092915050565b60005b8381101561055a57808201518184015260208101905061053f565b83811115610569576000848401525b50505050565b6000601f19601f8301169050919050565b600061058b82610520565b610595818561052b565b93506105a581856020860161053c565b6105ae8161056f565b840191505092915050565b60008115159050919050565b6105ce816105b9565b82525050565b60006060820190506105e96000830186610511565b81810360208301526105fb8185610580565b905061060a60408301846105c5565b949350505050565b600080fd5b600080fd5b7f4e487b7100000000000000000000000000000000000000000000000000000000600052604160045260246000fd5b6106548261056f565b810181811067ffffffffffffffff821117156106735761067261061c565b5b80604052505050565b600061068661049a565b9050610692828261064b565b919050565b600067ffffffffffffffff8211156106b2576106b161061c565b5b6106bb8261056f565b9050602081019050919050565b82818337600083830152505050565b60006106ea6106e584610697565b61067c565b90508281526020810184848401111561070657610705610617565b5b6107118482856106c8565b509392505050565b600082601f83011261072e5761072d610612565b5b813561073e8482602086016106d7565b91505092915050565b6000806040838503121561075e5761075d6104a4565b5b600061076c858286016104cf565b925050602083013567ffffffffffffffff81111561078d5761078c6104a9565b5b61079985828601610719565b9150509250929050565b60006060820190506107b86000830186610511565b81810360208301526107ca8185610580565b90506107d96040830184610511565b949350505050565b600080604083850312156107f8576107f76104a4565b5b6000610806858286016104cf565b9250506020610817858286016104cf565b9150509250929050565b7f4e487b7100000000000000000000000000000000000000000000000000000000600052602260045260246000fd5b6000600282049050600182168061086857607f821691505b6020821081141561087c5761087b610821565b5b50919050565b7f4e487b7100000000000000000000000000000000000000000000000000000000600052601160045260246000fd5b60006108bc826104ae565b91507fffffffffffffffffffffffffffffffffffffffffffffffffffffffffffffffff8214156108ef576108ee610882565b5b60018201905091905056fea2646970667358221220196a9d9334b642c4b9458471b88e1b29a0a0e8ef8ce4cd158a9b496452e0712c64736f6c634300080b0033",
  "immutableReferences": {},
  "source": "//SPDX-License-Identifier: UNLICENSED\npragma solidity ^0.8.11;\n\ncontract VotingSystem {\n    struct Voter{\n        uint id;\n        string name;\n        bool cast;\n    }\n    struct Candidate{\n        uint id;\n        string name;\n        uint voteCount;\n    }\n    mapping(uint=>Candidate) public candidateList;\n    mapping(uint=>Voter) public voterList;\n    function vote(uint candidateId, uint voterId) public {\n        if(voterList[voterId].cast !=true){\n            candidateList[candidateId].voteCount++;\n            voterList[voterId].cast = true;\n        }\n    }\n    function createCandidate(uint id, string memory name) public{\n        candidateList[id] = Candidate(id,name,0);\n    }\n    function createVoter(uint id, string memory name) public{\n        voterList[id] = Voter(id,name,false);\n    }\n}",
  "sourcePath": "/home/utkarsh/Desktop/projects/ganache/projects/project_1/contracts/VotingSystem.sol",
  "compiler": {
    "name": "solc",
    "version": "0.8.11+commit.d7f03943.Emscripten.clang"
  },
  "schemaVersion": "3.4.4",
  "updatedAt": "2022-01-16T07:15:56.454Z",
  "networkType": "ethereum",
  "devdoc": {
    "kind": "dev",
    "methods": {},
    "version": 1
  },
  "userdoc": {
    "kind": "user",
    "methods": {},
    "version": 1
  }
}